:100000000C9457000C947F000C947F000C947F009C
:100010000C947F000C947F000C947F000C947F0064
:100020000C947F000C947F000C947F000C947F0054
:100030000C947F000C947F000C947F000C947F0044
:100040000C940B070C947F000C947F000C947F00A1
:100050000C947F000C947F000C947F000C947F0024
:100060000C947F000C947F00000000002300260009
:10007000290000000000250028002B0004040404CF
:100080000404040402020202020203030303030342
:10009000010204081020408001020408102001021F
:1000A0000408102000FFFF2DFF9D39C555071124BE
:1000B0001FBECFEFD8E0DEBFCDBF11E0A0E0B1E0C2
:1000C000EEEAF3E102C005900D92A232B107D9F732
:1000D00024E0A2E2B1E001C01D92A236B207E1F72E
:1000E00010E0C7E5D0E004C02197FE010E94BB09E3
:1000F000C635D107C9F70E94F1070C94D5090C94B5
:1001000000004F925F926F927F928F929F92AF9278
:10011000BF92CF92DF92EF92FF920F931F93CF93F4
:10012000DF93FC017A01D90148175907D0F42C91CB
:1001300011969C91119712968C911297EB0149811F
:100140003A8158815C9311964C93119712963C9387
:100150001297288399838A839E2F8F2FF701E92E88
:10016000F82EEB01088110E08C9190E0801B910B40
:100170009695982F8827979587954980512C1196A9
:10018000CC901197D12CC418D508D694DC2CCC2453
:10019000D794C7946A80712C12962C9130E026195E
:1001A00037093695322F2227379527955701AE1AF2
:1001B000BF0A19F4AA24A394B12CB5010E945F09C7
:1001C0004B01C601B5010E945F096B01C901B50170
:1001D0000E945F09880C991CCC0CDD1C660F771FF0
:1001E000102F0027D42DCC27762C6624DF01AA0FF0
:1001F000BB1FAE0FBF1FAE5CBB4FEE16FF0680F0FD
:100200001C931196DC93119712967C921297080D0D
:10021000191DCC0DDD1D660E771E31961396EDCFA0
:10022000DF91CF911F910F91FF90EF90DF90CF90D2
:10023000BF90AF909F908F907F906F905F904F9006
:100240000895DC0117962C91179730E0F901E057DB
:10025000FF4FE4911696EC93169724583F4FF901FF
:100260008491E82FF0E0EE0FFF1FEE58FF4F8591CD
:10027000949113969C938E931297F9012491E22FF7
:10028000F0E0EE0FFF1FE859FF4F8591949115960E
:100290009C938E931497089580E991E008953FB759
:1002A000F8948091250190912601A0912701B091A9
:1002B000280126B5A89B05C02F3F19F00196A11D66
:1002C000B11D3FBFBA2FA92F982F8827BC01CD01A0
:1002D000620F711D811D911D42E0660F771F881FFF
:1002E000991F4A95D1F708954F925F926F927F922E
:1002F0009F92AF92BF92CF92DF92EF92FF920F93B5
:100300001F93CF93DF9300D01F92CDB7DEB7F82EA7
:100310008091280490912904A0912A04B0912B0483
:10032000892B8A2B8B2BD9F00E944F01009121043D
:10033000109122042091230430912404601B710B3E
:10034000820B930B009128041091290420912A0418
:1003500030912B046017710782079307C8F20E943F
:100360004F0160932104709322048093230490939F
:100370002404E0913004F0913104309759F0409119
:100380002C0450912D0460912E0470912F048F2D18
:100390000995F82E00911F04109120044F2C512C28
:1003A000712C612C0115110509F45EC0D8011C9651
:1003B000EC901C9780912604909127048436910537
:1003C00010F41C961C92D801ED91FC91A280B38090
:1003D00019821A821B82FF2089F1F8013696D12CEE
:1003E000C12C2191222319F19280992001F130E052
:1003F00050E040E02F5F3F4F4F4F5F4FC301B201CE
:100400000E944F099B01AC01892D90E0B0E0A0E073
:10041000BC01CD016F5F7F4F8F4F9F4F0E944F09EF
:10042000A1E0B0E0AC0FBD1FAC0DBD1D8C93BFEFC4
:10043000CB1ADB0A83E0C816D10499F6D8011D96C1
:100440004D915C911E9712966D917C919E012F5F4C
:100450003F4FC801F5010995D8011C96EC921C97F5
:1004600014960D911C919ECF80911D0490911E04B5
:100470009C012F5F3F4F30931E0420931D0449972A
:100480000CF44AC08FB7F8942091150430911604EB
:1004900040911704509118048FBF809119049091D6
:1004A0001A04A0911B04B0911C04281B390B4A0BA1
:1004B0005B0B21F421E030E040E050E0E0911D04CE
:1004C000F0911E0488EE93E0E89FB001E99F700D63
:1004D000F89F700D1124072E000C880B990B0E94B9
:1004E0007309309327042093260410921E0410925F
:1004F0001D042FB7F8948091150490911604A091D3
:100500001704B09118042FBF8093190490931A0414
:10051000A0931B04B0931C040F900F900F90DF91D9
:10052000CF911F910F91FF90EF90DF90CF90BF90F0
:10053000AF909F907F906F905F904F9008958F92B3
:100540009F92AF92BF92CF92DF92EF92FF924B01B8
:100550005C010E944F016B017C010E944F016C19EC
:100560007D098E099F09683E734081059105A8F3B6
:1005700021E0821A9108A108B10888EEC80E83E034
:10058000D81EE11CF11C81149104A104B10429F7C7
:10059000FF90EF90DF90CF90BF90AF909F908F90A3
:1005A00008952F923F924F925F926F927F928F9217
:1005B0009F92AF92BF92CF92DF92EF92FF920F93F2
:1005C0001F93CF93DF93CDB7DEB729970FB6F8947B
:1005D000DEBF0FBECDBF898749835A836B837C837F
:1005E00000911F0410912004BDE78B2E912CA12CAB
:1005F000B12C0115110509F46BC0D801ED91FC91E6
:100600000084F185E02DC80109951C01D8011296DE
:10061000ED91FC91C12CD12C7601412C512C320151
:1006200020E030E0A901009791F06081260F311D94
:10063000411D511D6181460E511C611C711C62815E
:10064000C60ED11CE11CF11C01973396ECCFA0E53E
:10065000B0E00E949C096D837E838F839887A7E317
:10066000B0E0A30192010E949C092B013C01ABE484
:10067000B0E0A70196010E949C092D813E814F8127
:100680005885C32ED42EE52EFF2445E0429D9001CF
:10069000439D300D1124C20ED31EE11CF11C8C0CA5
:1006A0009D1CAE1CBF1C452C562C672C7724840C3B
:1006B000951CA61CB71C472F582F692F7727840E2F
:1006C000951EA61EB71ED80114960D911C9191CFB0
:1006D000B985CB2ED12CF12CE12CA7019601C501B7
:1006E000B4010E944F09872E982EA92EBB24298180
:1006F0003A814B815C8182169306A406B50668F0A8
:10070000A701960169817A818B819C810E944F09A2
:10071000A50194010E9473092987898529960FB63E
:10072000F894DEBF0FBECDBFDF91CF911F910F9127
:10073000FF90EF90DF90CF90BF90AF909F908F9001
:100740007F906F905F904F903F902F900895FC01A5
:10075000A281B3819C9186812681982381E09213A6
:1007600080E00895FC0186810280F381E02D908174
:100770008095892380830895FC0196810280F3810E
:10078000E02D8081892B808308950F931F93CF9351
:10079000DF93209123012F5F322F37703093230195
:1007A00020FF2BC020E831FD2064347009F0206266
:1007B000205FFC01EC01239600E011E064856623D4
:1007C00029F070E0C8010E945F096F5F6187322FD6
:1007D000369F030E30E0311D1124311110C01682F6
:1007E000662311F0615061873196EC17FD0731F7F0
:1007F000DF91CF911F910F91089520E0D4CF315018
:100800003683EECF4F925F926F927F928F92AF922C
:10081000BF92CF92DF92EF920F931F93CF93DF930C
:100820003C01EB010E944F01F30127853089621BD7
:10083000730B6A307105B0F3F894E881F9817BB1EC
:1008400078606BB1677F6BB9CA848F812C2D281BB0
:10085000822F2F83BF844A805B801D850C85DE84B8
:100860001F5F0F5FD3949E813885A984EB844181FB
:10087000D20120E0C32F522F322F31814427889498
:100880003111380F08F43FEF8195889410FD430F24
:100890004795889411FD430F4795889412FD430FA7
:1008A0004795889413FD430F4795889414FD430F93
:1008B0004795889415FD430F4795889416FD430F7F
:1008C0004795889417FD430F47958894232F11115E
:1008D000242F8C0D422F002C7BB900C047FF6BB931
:1008E00030812227889400C000C0002C6BB93111E0
:1008F000390F00C0002C7BB900C046FF6BB908F46B
:100900003FEF9195889400C000C0002C6BB900FDAA
:10091000230F00C0002C7BB900C045FF6BB92795A1
:10092000889401FD230F00C000C0002C6BB92795EF
:10093000889400C0002C7BB900C044FF6BB902FD55
:10094000230F2795889400C000C0002C6BB903FDCD
:10095000230F00C0002C7BB900C043FF6BB9279563
:10096000889404FD230F00C000C0002C6BB92795AC
:10097000889400C0002C7BB900C042FF6BB905FD14
:10098000230F2795889400C000C0002C6BB906FD8A
:10099000230F00C0002C7BB900C041FF6BB9279525
:1009A000889407FD230F00C000C0002C6BB9279569
:1009B000889400C0002C7BB900C040FF6BB9432F66
:1009C0000111422F9A0D00C000C0002C6BB900C06D
:1009D00000C0002C7BB900C047FF6BB932812227D1
:1009E000889400C000C0002C6BB931113C0F00C0CE
:1009F000002C7BB900C046FF6BB908F43FEFEB0D4C
:100A0000F11D00C000C0002C6BB9D0FC230F00C04A
:100A1000002C7BB900C045FF6BB927958894D1FCA9
:100A2000230F00C000C0002C6BB92795889400C02C
:100A3000002C7BB900C044FF6BB9D2FC230F279573
:100A4000889400C000C0002C6BB9D3FC230F00C0F9
:100A5000002C7BB900C043FF6BB927958894D4FC68
:100A6000230F00C000C0002C6BB92795889400C0EC
:100A7000002C7BB900C042FF6BB9D5FC230F279532
:100A8000889400C000C0002C6BB9D6FC230F00C0B6
:100A9000002C7BB900C041FF6BB927958894D7FC27
:100AA000230F00C000C0002C6BB92795889400C0AC
:100AB000002C7BB900C040FF6BB9432FD110422FEF
:100AC000C19500C000C0002C6BB9CE0D00C000C0A5
:100AD0007BB900C047FF6BB931812227889400C0E1
:100AE00000C0002C6BB93111380F00C0002C7BB94D
:100AF00000C046FF6BB908F43FEF8195889400C0B1
:100B000000C0002C6BB910FD230F00C0002C7BB976
:100B100000C045FF6BB92795889411FD230F00C0D5
:100B200000C0002C6BB92795889400C0002C7BB9BD
:100B300000C044FF6BB912FD230F2795889400C0B5
:100B400000C0002C6BB913FD230F00C0002C7BB933
:100B500000C043FF6BB92795889414FD230F00C094
:100B600000C0002C6BB92795889400C0002C7BB97D
:100B700000C042FF6BB915FD230F2795889400C074
:100B800000C0002C6BB916FD230F00C0002C7BB9F0
:100B900000C041FF6BB92795889417FD230F00C053
:100BA00000C0002C6BB92795889400C0002C7BB93D
:100BB00000C040FF6BB9432F1111422F8C0D00C0B4
:100BC00000C0002C6BB9119709F086CE20EE31E001
:100BD000D2010E949509DC01CB01F4E0B695A795FE
:100BE00097958795FA95D1F730E020E0B901EAE9C9
:100BF0004E9E040C611D5E9E600D711D1124650DDD
:100C0000711D860F971FA11DB11D893E43E09407FA
:100C1000A105B10508F434C0885E9340A109B1096B
:100C200042E0B695A795979587954A95D1F747E005
:100C3000849F080E211D949F200D311D1124290F22
:100C4000311D6091220170E0860F971F820F931F64
:100C50004091150450911604609117047091180486
:100C6000292F3327420F531F611D711D4093150417
:100C70005093160460931704709318048093220114
:100C800078940E944F01F301708B6787DF91CF91B9
:100C90001F910F91EF90DF90CF90BF90AF908F900A
:100CA0007F906F905F904F900895539A08950F939F
:100CB0001F93CF93DF93CDB7DEB762970FB6F8944B
:100CC000DEBF0FBECDBF8C01F901DC011C968C91FB
:100CD0007A8369835C834B835E834D8390819D8798
:100CE00091819E8792819F878130F1F4CE01019698
:100CF0000E94C50383E0888B1A8A198AD801ED9176
:100D0000FC910484F585E02DBE016F5F7F4FC80123
:100D1000099562960FB6F894DEBF0FBECDBFDF9186
:100D2000CF911F910F9108951C861B861A861986F4
:100D300018861F82DFCF0F931F93CF93DF93CDB71A
:100D4000DEB762970FB6F894DEBF0FBECDBF8C0141
:100D5000F901DC011C968C917A8369835C834B8357
:100D60005E834D8390819D8791819E8792819F872D
:100D70008130E9F4CE0101960E94C503188A1A8ACF
:100D8000198AD801ED91FC910484F585E02DBE010E
:100D90006F5F7F4FC801099562960FB6F894DEBF6A
:100DA0000FBECDBFDF91CF911F910F9108951C868B
:100DB0001B861A86198618861F82E0CF90E080E095
:100DC0000895FC01858596850895CF93DF9300D023
:100DD00000D000D0CDB7DEB7AB011C821D821E82D1
:100DE000DC01ED91FC910190F081E02D19821A82D5
:100DF0001B829E012F5F3F4FBE016C5F7F4F0995A5
:100E000026960FB6F894DEBF0FBECDBFDF91CF910F
:100E100008950E94D0091F920F920FB60F921124CD
:100E20002F933F938F939F93AF93BF93809115041C
:100E300090911604A0911704B091180430912401E8
:100E400023E0230F2D3758F50196A11DB11D2093E6
:100E500024018093150490931604A0931704B09373
:100E600018048091250190912601A0912701B0914D
:100E700028010196A11DB11D8093250190932601A3
:100E8000A0932701B0932801BF91AF919F918F91BB
:100E90003F912F910F900FBE0F901F90189526E84D
:100EA000230F0296A11DB11DD2CF5F926F927F9248
:100EB0008F929F92AF92BF92CF92DF92EF92FF926A
:100EC0000F931F93CF93DF9300D000D000D0CDB706
:100ED000DEB78FEF8093250410922704109226042A
:100EE00010923104109230048FEF9FEFDC01809359
:100EF0002C0490932D04A0932E04B0932F0484EA25
:100F000090E010E000E0FC014591559165917491ED
:100F10000F5F1F4F04964F3FB1F7E4EAF0E0859171
:100F20009591A591B4915B2F5A2E77247A9424EA57
:100F3000A22E20E0B22E912C812C24E0A20EB11C16
:100F4000F501C590D590E590F4906C2C940184E067
:100F5000359527958A95E1F7822F8C2C912C4C2D75
:100F600042954F700031110580F4672D072C000C5D
:100F7000770B6217730744F02FE0721629F081E0B7
:100F8000870D481708F4482F742EDC82ED82FE820C
:100F900099835A825B8350E09E012C5F3F4FBE01D4
:100FA0006F5F7F4F90E00E9481009D2D5E2C5F2D32
:100FB0008FEF6812C2CF26960FB6F894DEBF0FBE31
:100FC000CDBFDF91CF911F910F91FF90EF90DF90F8
:100FD000CF90BF90AF909F908F907F906F905F90D9
:100FE0000895789484B5826084BD84B5816084BDA1
:100FF00085B5826085BD85B5816085BD80916E00B7
:10100000816080936E0010928100809181008260E7
:101010008093810080918100816080938100809124
:1010200080008160809380008091B1008460809313
:10103000B1008091B00081608093B00080917A000F
:10104000846080937A0080917A00826080937A0035
:1010500080917A00816080937A0080917A00806824
:1010600080937A001092C10068EB7BE080E090E012
:101070000E949F0280913C01811145C010922E0177
:1010800010922D018FEF8093310180933201809374
:10109000330180933401809335018093360181E0E0
:1010A000809337011092390110923801109230016B
:1010B00010922F0180911F0490912004892B31F40C
:1010C0008BE291E09093200480931F04E09129012A
:1010D000F0912A01309721F08BE291E0958384838F
:1010E0008BE291E090932A018093290110923B01B9
:1010F00010923A0184E191E090932C0180932B01AE
:1011000081E080933C01539A84E491E090932E0116
:1011100080932D0180EF90E0909339018093380106
:101120008091280490912904A0912A04B0912B0465
:10113000843C29E09207A105B10520F484EC99E0F4
:10114000A0E0B0E08093280490932904A0932A049F
:10115000B0932B048FEF8093310180EB80933201A9
:1011600080EF8093330180E48093250481ED92E049
:10117000909331048093300488E893E1A0E0B0E0DC
:1011800080932C0490932D04A0932E04B0932F04ED
:10119000C0E0D0E07091140451E0570F5093140454
:1011A000A4E4B1E07F52252F22952F70452F4F7078
:1011B000E22FEE0FE20FF0E0EE5CFB4F3081918109
:1011C0008281442309F42EC033962F3011F4E2E3D8
:1011D000F4E04295407F142F1095319F030E30E0CC
:1011E000311D2081249F020E20E0211D320F292F66
:1011F000219F020E20E0211D9181692F649F060E20
:1012000060E0611D922F960F282F219F020E20E093
:10121000211D8281682F649F060E60E0611D822F70
:10122000860F11243C9311969C93119712968C93E0
:1012300012975D5F13965713B6CF809125040E94D5
:1012400074018FB7F894C0901504D0901604E09004
:101250001704F09018048FBF61E070E080E090E028
:101260000E949F02809125040E9474012FB7F89478
:101270008091150490911604A0911704B091180460
:101280002FBF8C199D09AE09BF090A97A105B105A9
:1012900018F3209709F47ECF0E9400007BCFDB017A
:1012A0008F939F930E949C09BF91AF91A29F800D45
:1012B000911DA39F900DB29F900D1124089597FB4F
:1012C000072E16F4009407D077FD09D00E94A709D5
:1012D00007FC05D03EF4909581959F4F0895709539
:1012E00061957F4F0895A1E21A2EAA1BBB1BFD0139
:1012F0000DC0AA1FBB1FEE1FFF1FA217B307E407F5
:10130000F50720F0A21BB30BE40BF50B661F771F4C
:10131000881F991F1A9469F760957095809590952C
:101320009B01AC01BD01CF0108950E94C109B7FF27
:101330000895821B930B08950E94C109A59F900DEB
:10134000B49F900DA49F800D911D11240895AA1B98
:10135000BB1B51E107C0AA1FBB1FA617B70710F0A0
:10136000A61BB70B881F991F5A95A9F780959095D2
:10137000BC01CD010895EE0FFF1F0590F491E02D03
:101380000994A29FB001B39FC001A39F700D811D5E
:101390001124911DB29F700D811D1124911D08957E
:0E13A00081E090E0F8940C94D509F894FFCF0A
:1013AE0000000000090709070907E506E106DE0649
:1013BE00000000009B0657065506E506E1064C01A7
:0213CE00020417
:00000001FF
