:100000000C94E9000C9411010C9411010C94110151
:100010000C9411010C9411010C9411010C94110118
:100020000C9411010C9411010C94B7090C94260A3C
:100030000C9411010C9411010C9411010C941101F8
:100040000C9411010C9411010C9411010C941101E8
:100050000C9411010C9411010C9411010C94580C86
:100060000C9411010C9411010C9411010C941101C8
:100070000C9411010C9411010C9411010C941101B8
:100080000C9411010C9411010C9411010C941101A8
:100090000C9411010C9411010C9411010C94110198
:1000A0000C9411010C9411010C941101080B000225
:1000B0000202000009040000010202000005240001
:1000C0001001052401010104240206052406000193
:1000D0000705810310004009040100020A00000026
:1000E00007050202400000070583024000000403E8
:1000F000090412010002EF02014041233780000190
:100100000102030141726475696E6F204C4C43001B
:1001100041726475696E6F204D6963726F000000F3
:1001200000002300260029002C002F000000000002
:10013000250028002B002E003100040404040403D1
:100140000405020202020403020202020606060677
:10015000060604040202020404040802011040809E
:10016000401020408040800802040180402010029E
:1001700001108010204040200094A40907E5E3010D
:1001800016180D0321E5E3012B180D033DE84B0183
:1001900047180D0359E84B0165E8030172E84B016C
:1001A0007A180D0387E84B0199E5E301A0E8030104
:1001B000AD180D03BAE5E301CC180D03DBE5E3014F
:1001C000E8E80301EFE82801FCE80301FFE8030188
:1001D000A20C11241FBECFEFDAE0DEBFCDBF11E0CD
:1001E000A0E0B1E0E8E2FFE102C005900D92A83482
:1001F000B107D9F724E0A8E4B1E001C01D92AE3EFA
:10020000B207E1F710E0C9EED0E004C02197FE018B
:100210000E94780FC83ED107C9F70E94590D0C946F
:10022000920F0C9400004F925F926F927F928F9288
:100230009F92AF92BF92CF92DF92EF92FF920F9375
:100240001F93CF93DF93FC017A01D9014817590717
:10025000D0F42C9111969C91119712968C91129733
:10026000EB0149813A8158815C9311964C93119727
:1002700012963C931297288399838A839E2F8F2FFF
:10028000F701E92EF82EEB01088110E08C9190E047
:10029000801B910B9695982F882797958795498075
:1002A000512C1196CC901197D12CC418D508D69406
:1002B000DC2CCC24D794C7946A80712C12962C9194
:1002C00030E0261937093695322F222737952795A2
:1002D0005701AE1ABF0A19F4AA24A394B12CB50190
:1002E0000E941C0F4B01C601B5010E941C0F6B013F
:1002F000C901B5010E941C0F880C991CCC0CDD1C97
:10030000660F771F102F0027D42DCC27762C66245C
:10031000DF01AA0FBB1FAE0FBF1FA254BB4FEE16CB
:10032000FF0680F01C931196DC93119712967C9235
:100330001297080D191DCC0DDD1D660E771E319626
:100340001396EDCFDF91CF911F910F91FF90EF901A
:10035000DF90CF90BF90AF909F908F907F906F90E5
:100360005F904F900895DC0117962C91179730E01D
:10037000F901E75AFE4FE4911696EC931697265C26
:100380003E4FF9018491E82FF0E0EE0FFF1FE45D8E
:10039000FE4F8591949113969C938E931297F90139
:1003A0002491E22FF0E0EE0FFF1FE25EFE4F8591F9
:1003B000949115969C938E9314970895FC018091C7
:1003C0005004882311F13FB7F89482E08093E9004C
:1003D0002091F200822F90E01816190614F481E0A3
:1003E00090E0882339F0289A44E640934F044091E6
:1003F000F1004083222339F02091F200211103C043
:100400002BE62093E8003FBF08958FEF9FEF0895FC
:100410002FB7F89483E08093E9009091E800892F4A
:10042000807295FF04C09091F20080E4891B2FBF79
:1004300008958091470481110DC082E080934304A8
:1004400084E080934404109246041092450481E0B5
:100450008093470483E494E00895CF93DF931F9241
:10046000CDB7DEB76983DC01ED91FC910280F381A9
:10047000E02D41E050E0BE016F5F7F4F09950F9086
:10048000DF91CF91089583E08093E9008091F2009D
:10049000882319F08AE38093E80008950E940802F7
:1004A00090E00895CF93DF931F92CDB7DEB7FC01A4
:1004B0008485958597FD08C02FEF3FEF358724870A
:1004C0000F90DF91CF910895CE0101960E94DE0139
:1004D000019719F4898190E0F3CF8FEF9FEFF0CF70
:1004E0000F931F93CF93DF931F92CDB7DEB78C018D
:1004F000FC018485958597FF0BC0CE0101960E9473
:10050000DE01019771F4898190E0F8019587848775
:10051000F801848595850F90DF91CF911F910F9100
:1005200008958FEF9FEFF1CFFC018485958597FDAE
:100530000BC09FB7F89482E08093E9008091F200AD
:100540009FBF90E0019608959FB7F89482E0809352
:10055000E9008091F2009FBF90E0089540913D0432
:1005600050913E0420913B0430913C0442175307C4
:10057000B4F49091E8009570E1F39091E80092FD59
:1005800019C08093F10080913D0490913E04019642
:100590008F739927892B19F48EEF8093E80080914F
:1005A0003D0490913E04019690933E0480933D0457
:1005B00081E0089580E00895EF92FF920F931F93DA
:1005C000CF93DF93F82E192FE62E042F81E0860FAC
:1005D000880F0E94AE0283E00E94AE02CF2DD12F81
:1005E000EC0EFD2EF11CCE15DF05B9F007FF13C090
:1005F000FE0184910E94AE02182F80E00E94AE029C
:10060000812321968111EFCFDF91CF911F910F911F
:10061000FF90EF9008958881EDCF81E0F5CFDF92D4
:10062000EF92FF920F931F93CF93DF93D82E8A01FF
:10063000EB017B01E40EF51ECE15DF0559F0D7FE68
:1006400012C0FE0184910E94AE0221968111F4CF66
:100650000FEF1FEFC801DF91CF911F910F91FF9016
:10066000EF90DF9008958881EECF0F931F93CF9383
:10067000DF931F92CDB7DEB782E0898342E450E07A
:100680006CEA70E080E80E940F030E941902DC010E
:1006900012960D911C910115110589F0D801ED916B
:1006A000FC910280F381E02DBE016F5F7F4FC80196
:1006B000099597FD04C0F80100851185ECCF89816B
:1006C0000F90DF91CF911F910F910895615030F0FD
:1006D0002091F100FC0120830196F8CF289A84E64E
:1006E00080934F04089580E991E008953FB7F8940E
:1006F00080914B0190914C01A0914D01B0914E0120
:1007000026B5A89B05C02F3F19F00196A11DB11D6C
:100710003FBFBA2FA92F982F8827BC01CD01620FA8
:10072000711D811D911D42E0660F771F881F991F63
:100730004A95D1F708954F925F926F927F929F9260
:10074000AF92BF92CF92DF92EF92FF920F931F93DF
:10075000CF93DF9300D01F92CDB7DEB7F82E8091F4
:10076000B4049091B504A091B604B091B704892B5C
:100770008A2B8B2BD9F00E94760300915D04109197
:100780005E0420915F0430916004601B710B820B4A
:10079000930B0091B4041091B5042091B6043091EC
:1007A000B7046017710782079307C8F20E947603A7
:1007B00060935D0470935E0480935F049093600483
:1007C000E091BC04F091BD04309759F04091B80419
:1007D0005091B9046091BA047091BB048F2D0995B2
:1007E000F82E00915B0410915C044F2C512C712C5D
:1007F000612C0115110509F45EC0D8011C96EC901E
:100800001C978091B2049091B3048436910510F442
:100810001C961C92D801ED91FC91A280B3801982A4
:100820001A821B82FF2089F1F8013696D12CC12C47
:100830002191222319F19280992001F130E050E0BA
:1008400040E02F5F3F4F4F4F5F4FC301B2010E9407
:100850000C0F9B01AC01892D90E0B0E0A0E0BC0141
:10086000CD016F5F7F4F8F4F9F4F0E940C0FA1E014
:10087000B0E0AC0FBD1FAC0DBD1D8C93BFEFCB1A0C
:10088000DB0A83E0C816D10499F6D8011D964D9174
:100890005C911E9712966D917C919E012F5F3F4F48
:1008A000C801F5010995D8011C96EC921C97149685
:1008B0000D911C919ECF8091590490915A049C01F6
:1008C0002F5F3F4F30935A042093590449970CF4FB
:1008D0004AC08FB7F894209151043091520440914E
:1008E0005304509154048FBF809155049091560445
:1008F000A0915704B0915804281B390B4A0B5B0B8D
:1009000021F421E030E040E050E0E0915904F09122
:100910005A0488EE93E0E89FB001E99F700DF89FBC
:10092000700D1124072E000C880B990B0E94300FBC
:100930003093B3042093B20410925A0410925904D5
:100940002FB7F8948091510490915204A0915304D0
:10095000B09154042FBF8093550490935604A093F4
:100960005704B09358040F900F900F90DF91CF91E0
:100970001F910F91FF90EF90DF90CF90BF90AF90BD
:100980009F907F906F905F904F9008958F929F926D
:10099000AF92BF92CF92DF92EF92FF924B015C0138
:1009A0000E9476036B017C010E9476036C197D091D
:1009B0008E099F09683E734081059105A8F321E0E7
:1009C000821A9108A108B10888EEC80E83E0D81EEB
:1009D000E11CF11C81149104A104B10429F7FF90DA
:1009E000EF90DF90CF90BF90AF909F908F90089541
:1009F0008F929F92AF92BF92CF92DF92EF92FF922F
:100A00000F931F93CF93DF936C017B018A01809139
:100A10000B01882309F45CC080915004882309F4F9
:100A200057C08091420480FF05C08091E000826041
:100A30008093E000E801B12C8AEFA82E93E0892E84
:100A40002AE3922E209711F4BB20D9F10E940802CC
:100A500081110AC0AA94AA20D9F161E070E080E077
:100A600090E00E94C604EECF8C171D0611F00CF02A
:100A70008C2F9FB7F8948092E9002091E80025FD23
:100A800002C09FBFDFCF282F30E0C21BD30BF7017E
:100A9000815020F041914093F100FACFE20EF31E15
:100AA000BB2021F09092E800B12CEBCF8091E800C0
:100AB00085FDE7CF9092E800BB24B394209709F31B
:100AC000F3CF5D9A84E680934104101611063CF042
:100AD00081E090E0F6019383828310E000E0C8019A
:100AE000DF91CF911F910F91FF90EF90DF90CF900A
:100AF000BF90AF909F908F9008952F923F924F920A
:100B00005F926F927F928F929F92AF92BF92CF929D
:100B1000DF92EF92FF920F931F93CF93DF93CDB7A6
:100B2000DEB729970FB6F894DEBF0FBECDBF898719
:100B300049835A836B837C8300915B0410915C042E
:100B4000BDE78B2E912CA12CB12C0115110509F4B8
:100B50006BC0D801ED91FC910084F185E02DC801B6
:100B600009951C01D8011296ED91FC91C12CD12C54
:100B70007601412C512C320120E030E0A901009790
:100B800091F06081260F311D411D511D6181460E7E
:100B9000511C611C711C6281C60ED11CE11CF11C30
:100BA00001973396ECCFA0E5B0E00E94590F6D831A
:100BB0007E838F839887A7E3B0E0A30192010E9410
:100BC000590F2B013C01ABE4B0E0A70196010E9454
:100BD000590F2D813E814F815885C32ED42EE52E8D
:100BE000FF2445E0429D9001439D300D1124C20E2B
:100BF000D31EE11CF11C8C0C9D1CAE1CBF1C452C93
:100C0000562C672C7724840C951CA61CB71C472FE8
:100C1000582F692F7727840E951EA61EB71ED80160
:100C200014960D911C9191CFB985CB2ED12CF12C1E
:100C3000E12CA7019601C501B4010E940C0F872E7B
:100C4000982EA92EBB2429813A814B815C81821682
:100C50009306A406B50668F0A701960169817A811A
:100C60008B819C810E940C0FA50194010E94300F82
:100C70002987898529960FB6F894DEBF0FBECDBFB0
:100C8000DF91CF911F910F91FF90EF90DF90CF9068
:100C9000BF90AF909F908F907F906F905F904F909C
:100CA0003F902F900895FC01A281B3819C91868191
:100CB0002681982381E0921380E00895FC018681CB
:100CC0000280F381E02D90818095892380830895AF
:100CD000FC0196810280F381E02D8081892B808345
:100CE00008950F931F93CF93DF93209149012F5FB6
:100CF000322F37703093490120FF2BC020E831FD9F
:100D00002064347009F02062205FFC01EC0123961E
:100D100000E011E06485662329F070E0C8010E94BC
:100D20001C0F6F5F6187322F369F030E30E0311D3D
:100D30001124311110C01682662311F061506187B1
:100D40003196EC17FD0731F7DF91CF911F910F918D
:100D5000089520E0D4CF31503683EECF4F925F928A
:100D60006F927F928F92AF92BF92CF92DF92EF926B
:100D70000F931F93CF93DF933C01EB010E94760307
:100D8000F30127853089621B730B6A307105B0F35C
:100D9000F894E881F9817BB171606BB16E7F6BB9BA
:100DA000CA848F812C2D281B822F2F83BF844A80D9
:100DB0005B801D850C85DE841F5F0F5FD3949E8151
:100DC0003885A984EB844181D20120E0C32F522FC2
:100DD000322F3181442788943111380F08F43FEFC6
:100DE0008195889410FD430F4795889411FD430F1A
:100DF0004795889412FD430F4795889413FD430F40
:100E00004795889414FD430F4795889415FD430F2B
:100E10004795889416FD430F4795889417FD430F17
:100E200047958894232F1111242F8C0D422F002CCD
:100E30007BB900C047FF6BB930812227889400C07E
:100E400000C0002C6BB93111390F00C0002C7BB9E8
:100E500000C046FF6BB908F43FEF9195889400C03D
:100E600000C0002C6BB900FD230F00C0002C7BB923
:100E700000C045FF6BB92795889401FD230F00C082
:100E800000C0002C6BB92795889400C0002C7BB95A
:100E900000C044FF6BB902FD230F2795889400C062
:100EA00000C0002C6BB903FD230F00C0002C7BB9E0
:100EB00000C043FF6BB92795889404FD230F00C041
:100EC00000C0002C6BB92795889400C0002C7BB91A
:100ED00000C042FF6BB905FD230F2795889400C021
:100EE00000C0002C6BB906FD230F00C0002C7BB99D
:100EF00000C041FF6BB92795889407FD230F00C000
:100F000000C0002C6BB92795889400C0002C7BB9D9
:100F100000C040FF6BB9432F0111422F9A0D00C052
:100F200000C0002C6BB900C000C0002C7BB900C011
:100F300047FF6BB932812227889400C000C0002C83
:100F40006BB931113C0F00C0002C7BB900C046FFCB
:100F50006BB908F43FEFEB0DF11D00C000C0002C91
:100F60006BB9D0FC230F00C0002C7BB900C045FF3B
:100F70006BB927958894D1FC230F00C000C0002CCA
:100F80006BB92795889400C0002C7BB900C044FF42
:100F90006BB9D2FC230F2795889400C000C0002CA9
:100FA0006BB9D3FC230F00C0002C7BB900C043FFFA
:100FB0006BB927958894D4FC230F00C000C0002C87
:100FC0006BB92795889400C0002C7BB900C042FF04
:100FD0006BB9D5FC230F2795889400C000C0002C66
:100FE0006BB9D6FC230F00C0002C7BB900C041FFB9
:100FF0006BB927958894D7FC230F00C000C0002C44
:101000006BB92795889400C0002C7BB900C040FFC5
:101010006BB9432FD110422FC19500C000C0002CE6
:101020006BB9CE0D00C000C07BB900C047FF6BB9E3
:1010300031812227889400C000C0002C6BB9311187
:10104000380F00C0002C7BB900C046FF6BB908F414
:101050003FEF8195889400C000C0002C6BB910FD53
:10106000230F00C0002C7BB900C045FF6BB927954A
:10107000889411FD230F00C000C0002C6BB9279588
:10108000889400C0002C7BB900C044FF6BB912FDEE
:10109000230F2795889400C000C0002C6BB913FD66
:1010A000230F00C0002C7BB900C043FF6BB927950C
:1010B000889414FD230F00C000C0002C6BB9279545
:1010C000889400C0002C7BB900C042FF6BB915FDAD
:1010D000230F2795889400C000C0002C6BB916FD23
:1010E000230F00C0002C7BB900C041FF6BB92795CE
:1010F000889417FD230F00C000C0002C6BB9279502
:10110000889400C0002C7BB900C040FF6BB9432F0E
:101110001111422F8C0D00C000C0002C6BB911972B
:1011200009F086CE20EE31E0D2010E94520FDC01A0
:10113000CB01F4E0B695A79597958795FA95D1F7E9
:1011400030E020E0B901EAE94E9E040C611D5E9E8C
:10115000600D711D1124650D711D860F971FA11D56
:10116000B11D893E43E09407A105B10508F434C0E0
:10117000885E9340A109B10942E0B695A79597957D
:1011800087954A95D1F747E0849F080E211D949FCB
:10119000200D311D1124290F311D6091480170E08F
:1011A000860F971F820F931F409151045091520454
:1011B0006091530470915404292F3327420F531F19
:1011C000611D711D40935104509352046093530468
:1011D000709354048093480178940E947603F3013D
:1011E000708B6787DF91CF911F910F91EF90DF9008
:1011F000CF90BF90AF908F907F906F905F904F9007
:101200000895509A08950F931F93CF93DF93CDB70E
:10121000DEB762970FB6F894DEBF0FBECDBF8C016C
:10122000F901DC011C968C917A8369835C834B8382
:101230005E834D8390819D8791819E8792819F8758
:101240008130F1F4CE0101960E94710683E0888B13
:101250001A8A198AD801ED91FC910484F585E02D54
:10126000BE016F5F7F4FC801099562960FB6F89473
:10127000DEBF0FBECDBFDF91CF911F910F910895BB
:101280001C861B861A86198618861F82DFCF0F934D
:101290001F93CF93DF93CDB7DEB762970FB6F89465
:1012A000DEBF0FBECDBF8C01F901DC011C968C9115
:1012B0007A8369835C834B835E834D8390819D87B2
:1012C00091819E8792819F878130E9F4CE010196BA
:1012D0000E947106188A1A8A198AD801ED91FC9128
:1012E0000484F585E02DBE016F5F7F4FC80109952D
:1012F00062960FB6F894DEBF0FBECDBFDF91CF91DF
:101300001F910F9108951C861B861A8619861886D0
:101310001F82E0CF90E080E00895FC0185859685EE
:101320000895CF93DF9300D000D000D0CDB7DEB7C3
:10133000AB011C821D821E82DC01ED91FC910190AB
:10134000F081E02D19821A821B829E012F5F3F4F90
:10135000BE016C5F7F4F099526960FB6F894DEBFED
:101360000FBECDBFDF91CF9108950E948D0F1F92C8
:101370000F920FB60F9211248F939F938091E100EB
:101380009091E100937F9093E10083FF0FC0109252
:10139000E90091E09093EB001092EC0092E39093BF
:1013A000ED001092500498E09093F00082FF22C06C
:1013B00093E09093E9009091F200992319F09AE359
:1013C0009093E80090914104992341F09091410459
:1013D000915090934104911101C05D9890914F04F8
:1013E000992341F090914F04915090934F049111A3
:1013F00001C0289884FF18C08091E2008E7E816031
:101400008093E2008091E1008F7E8093E1008091E3
:1014100042048E7E8061809342049F918F910F9051
:101420000FBE0F901F90189580FFF7CF8091E200BC
:101430008E7E80618093E2008091E1008E7E8093B9
:10144000E100809142048E7E8160E5CF1F920F9271
:101450000FB60F921124CF92DF92EF92FF920F936B
:101460001F932F933F934F935F936F937F938F932C
:101470009F93AF93BF93EF93FF93CF93DF93CDB73A
:10148000DEB76C97DEBFCDBF1092E9008091E80017
:1014900083FF25C068E0CE0145960E94660382EF77
:1014A0008093E8008D8987FF39C09091E80090FF14
:1014B000FCCF982F907609F034C19E894F89588DC2
:1014C0002F89F88C911131C0803861F580914004EA
:1014D0008093F1001092F1008EEF8093E8006C96FB
:1014E0000FB6F894DEBF0FBECDBFDF91CF91FF9155
:1014F000EF91BF91AF919F918F917F916F915F918C
:101500004F913F912F911F910F91FF90EF90DF909E
:10151000CF900F900FBE0F901F9018959EEF909355
:10152000E800C7CF1092F100D5CF913059F4811166
:10153000D3CF4130510581F6809140048D7F809357
:101540004004CACF933049F48111C6CF41305105D0
:1015500019F6809140048260F2CF953041F4809179
:10156000E80080FFFCCF20682093E300B5CF9630E1
:1015700009F0A9C00B8D1C8D22E01092E900109299
:101580003E0410923D04F2122EC010923C041092C0
:101590003B040E9435031F8299E09983FA8291E00F
:1015A0009E8390EA98879AEF998720913D04309125
:1015B0003E04275F3F4F3C832B838D831092E900CD
:1015C00010923E0410923D0410933C0400933B049F
:1015D00049E050E0BE016F5F7F4F80E00E940F0343
:1015E0000E94350379CF10933C0400933B040E9482
:1015F0001902DC0112960D911C910115110509F4D7
:1016000051C1D801ED91FC910480F581E02DBE011E
:101610006B5E7F4FC8010995009709F03EC1F80144
:1016200000851185EACFF3E0FF120EC08F89882371
:1016300009F440C0823061F440E86DE080E191E05F
:101640000E94DC02811148CF81E28093EB0047CFFA
:10165000813029F440E86BE084E091E0F1CF833001
:1016600099F70E941902DC011296ED90FC908E0110
:101670000F5F1F4F6801E114F10479F0D701ED917C
:10168000FC910680F781E02DB801C7010995080F8C
:10169000111DF701E084F184EECFD8011C92F60110
:1016A00001900020E9F73197BF016C197D0940E0F6
:1016B000C601C6CF6EEE70E0FB01449150E080E8B9
:1016C0000E940F0309CF973009F4BECF983021F460
:1016D00081E08093F10000CF993009F0FDCE837056
:1016E00009F0B2CFEFE2F1E081E031E096E3219141
:1016F000222371F08093E9003093EB00DF01119712
:101700002C912093EC009093ED008F5F873079F758
:101710008EE78093EA001092EA008F89809350044C
:10172000DBCE8B8D9C8D1092E90010923E041092BE
:101730003D0490933C0480933B04898D811192C0B9
:101740008E899D89913A49F4813209F07DCF47E035
:1017500050E064E071E080E0B3CF913209F074CFE3
:10176000833269F48F89988DB0E0A0E08093000106
:1017700090930101A0930201B0930301ADCE80329A
:1017800069F48091E80082FFFCCF67E084E091E09B
:101790000E9466038BEF8093E8009ECE823209F0B0
:1017A0009BCE8F8980930B01EEEFFFE7859194919B
:1017B0008B3F9C4D51F1E0E0F8E080910401909165
:1017C0000501A0910601B0910701803B9440A1055D
:1017D000B105F1F480910B0180FD1AC0EE3F8AE063
:1017E000F80789F587E797E7918380838091600008
:1017F00080933F0488E19BE00FB6F894A89580930E
:1018000060000FBE9093600067CEEEEFFAE0D5CF98
:10181000808191818737974709F05ECEA8958091A6
:10182000600088618093600080913F048093600035
:10183000EE3F2AE0F20789F08091FE0A9091FF0ABC
:101840009183808349CE808191818737980751F2B7
:101850009093FF0A8093FE0AC5CF1092FF0A109260
:10186000FE0A3ACE0E941902DC0112960D911C91DB
:101870000115110509F4E8CED801ED91FC91019014
:10188000F081E02DBE016B5E7F4FC801099581118B
:1018900023CEF80100851185EBCF181619060CF43C
:1018A0001BCED2CEF1E0FF12BECE62EF70E004CFCD
:1018B0001F920F920FB60F9211242F933F938F9385
:1018C0009F93AF93BF938091510490915204A09144
:1018D0005304B091540430914A0123E0230F2D3773
:1018E00058F50196A11DB11D20934A018093510422
:1018F00090935204A0935304B093540480914B01ED
:1019000090914C01A0914D01B0914E010196A11D05
:10191000B11D80934B0190934C01A0934D01B09366
:101920004E01BF91AF919F918F913F912F910F9059
:101930000FBE0F901F90189526E8230F0296A11D49
:10194000B11DD2CF5F926F927F928F929F92AF9292
:10195000BF92CF92DF92EF92FF920F931F93CF939C
:10196000DF9300D000D000D0CDB7DEB71092640472
:101970001092630488EE93E0A0E0B0E080936504E9
:1019800090936604A0936704B093680489E391E0A0
:1019900090936204809361048FEF9FEF90936E04A5
:1019A00080936D048093B1041092B3041092B2043A
:1019B0001092BD041092BC048FEF9FEFDC01809366
:1019C000B8049093B904A093BA04B093BB0488E719
:1019D00091E010E000E0FC01459155916591749112
:1019E0000F5F1F4F04964F3FB1F7E8E7F1E0859195
:1019F0009591A591B4915B2F5A2E77247A9428E77C
:101A0000A22E21E0B22E912C812C24E0A20EB11C3A
:101A1000F501C590D590E590F4906C2C940184E08C
:101A2000359527958A95E1F7822F8C2C912C4C2D9A
:101A300042954F700031110580F4672D072C000C82
:101A4000770B6217730744F02FE0721629F081E0DC
:101A5000870D481708F4482F742EDC82ED82FE8231
:101A600099835A825B8350E09E012C5F3F4FBE01F9
:101A70006F5F7F4F90E00E9413019D2D5E2C5F2DC4
:101A80008FEF6812C2CF26960FB6F894DEBF0FBE56
:101A9000CDBFDF91CF911F910F91FF90EF90DF901D
:101AA000CF90BF90AF909F908F907F906F905F90FE
:101AB0000895789484B5826084BD84B5816084BDC6
:101AC00085B5826085BD85B5816085BD80916E00DC
:101AD000816080936E00109281008091810082600D
:101AE000809381008091810081608093810080914A
:101AF000800081608093800080919100826080935B
:101B0000910080919100816080939100809190007C
:101B10008160809390008091C10084608093C100B7
:101B20008091C10082608093C1008091C10081607A
:101B30008093C1008091C30081608093C300809135
:101B4000C00082608093C0008091C2008160809359
:101B5000C20080917A00846080937A0080917A003C
:101B6000826080937A0080917A00816080937A000D
:101B700080917A00806880937A00109250041092CD
:101B80004004109242048091D70081608093D70076
:101B900080EA8093D80089B5806189BD89B582606B
:101BA00089BD09B400FEFDCF61E070E080E090E007
:101BB0000E94C6048091D8008F7C80618093D800F9
:101BC0008091E000807F8093E0008091E1008E7E34
:101BD0008093E1008DE08093E200559A209A5D9811
:101BE000289868EB7BE080E090E00E94C60480913A
:101BF0006201811145C010925401109253018FEF80
:101C000080935701809358018093590180935A0122
:101C100080935B0180935C0181E080935D01109271
:101C20005F0110925E011092560110925501809151
:101C30005B0490915C04892B31F481E591E09093F1
:101C40005C0480935B04E0914F01F0915001309768
:101C500021F081E591E09583848381E591E0909383
:101C6000500180934F01109261011092600180E257
:101C700091E0909352018093510181E08093620141
:101C8000509A8AE691E0909354018093530180EF3B
:101C900090E090935F0180935E018091B4049091F5
:101CA000B504A091B604B091B704843C29E0920732
:101CB000A105B10520F484EC99E0A0E0B0E08093A8
:101CC000B4049093B504A093B604B093B7048FEF17
:101CD0008093570180EB8093580180EF80935901E6
:101CE00080E48093B1048DE795E09093BD048093E8
:101CF000BC0488E893E1A0E0B0E08093B80490933E
:101D0000B904A093BA04B093BB04C0E0D0E07091D2
:101D10003A0451E0570F50933A04AAE6B1E07F52DB
:101D2000252F22952F70452F4F70E22FEE0FE20FD7
:101D3000F0E0E254FB4F308191818281442309F429
:101D40002EC033962F3011F4EEEBF4E04295407F35
:101D5000142F1095319F030E30E0311D2081249FF8
:101D6000020E20E0211D320F292F219F020E20E0BC
:101D7000211D9181692F649F060E60E0611D922FE5
:101D8000960F282F219F020E20E0211D8281682FAF
:101D9000649F060E60E0611D822F860F11243C9324
:101DA00011969C93119712968C9312975D5F1396E0
:101DB0005713B6CF8091B1040E949B038FB7F8945C
:101DC000C0905104D0905204E0905304F090540419
:101DD0008FBF61E070E080E090E00E94C6048091D7
:101DE000B1040E949B032FB7F89480915104909105
:101DF0005204A0915304B09154042FBF8C199D0933
:101E0000AE09BF090A97A105B10518F3209709F497
:101E10007ECF0E9400007BCFDB018F939F930E94B7
:101E2000590FBF91AF91A29F800D911DA39F900D5F
:101E3000B29F900D1124089597FB072E16F400947D
:101E400007D077FD09D00E94640F07FC05D03EF44F
:101E5000909581959F4F0895709561957F4F089556
:101E6000A1E21A2EAA1BBB1BFD010DC0AA1FBB1F9E
:101E7000EE1FFF1FA217B307E407F50720F0A21B10
:101E8000B30BE40BF50B661F771F881F991F1A947D
:101E900069F760957095809590959B01AC01BD01A7
:101EA000CF0108950E947E0FB7FF0895821B930B08
:101EB00008950E947E0FA59F900DB49F900DA49F42
:101EC000800D911D11240895AA1BBB1B51E107C071
:101ED000AA1FBB1FA617B70710F0A61BB70B881FBA
:101EE000991F5A95A9F780959095BC01CD01089549
:101EF000EE0FFF1F0590F491E02D0994A29FB00111
:101F0000B39FC001A39F700D811D1124911DB29F2D
:101F1000700D811D1124911D089581E090E0F894C9
:081F20000C94920FF894FFCF1E
:101F2800FFFFFFFF00E100000000000000000000CC
:101F3800B509B509B50991098D098A09000000009C
:101F480047090309010991098D097303AE0600C108
:101F58008081000000000000002D02F8044E0243BA
:081F6800029402520270020013
:00000001FF
